{
  "_format": "hh-sol-artifact-1",
  "contractName": "ZuluShopContract",
  "sourceName": "src/blockchain/hardhat/contracts/ZuluShopContract.sol",
  "abi": [
    {
      "inputs": [
        {
          "internalType": "address",
          "name": "addressUSD",
          "type": "address"
        },
        {
          "internalType": "uint8",
          "name": "decimals",
          "type": "uint8"
        }
      ],
      "stateMutability": "nonpayable",
      "type": "constructor"
    },
    {
      "anonymous": false,
      "inputs": [
        {
          "indexed": true,
          "internalType": "address",
          "name": "previousOwner",
          "type": "address"
        },
        {
          "indexed": true,
          "internalType": "address",
          "name": "newOwner",
          "type": "address"
        }
      ],
      "name": "OwnershipTransferred",
      "type": "event"
    },
    {
      "anonymous": false,
      "inputs": [
        {
          "indexed": false,
          "internalType": "uint256",
          "name": "id_Ecomerce",
          "type": "uint256"
        },
        {
          "indexed": false,
          "internalType": "address",
          "name": "customer",
          "type": "address"
        },
        {
          "indexed": false,
          "internalType": "string",
          "name": "refer",
          "type": "string"
        },
        {
          "indexed": false,
          "internalType": "uint256",
          "name": "amount_token",
          "type": "uint256"
        },
        {
          "indexed": false,
          "internalType": "uint256",
          "name": "amount_fiat",
          "type": "uint256"
        }
      ],
      "name": "newSale",
      "type": "event"
    },
    {
      "anonymous": false,
      "inputs": [
        {
          "indexed": false,
          "internalType": "uint256",
          "name": "id_Ecomerce",
          "type": "uint256"
        },
        {
          "indexed": false,
          "internalType": "string",
          "name": "refer",
          "type": "string"
        },
        {
          "indexed": false,
          "internalType": "bool",
          "name": "accepct",
          "type": "bool"
        }
      ],
      "name": "stateTransaction",
      "type": "event"
    },
    {
      "inputs": [],
      "name": "owner",
      "outputs": [
        {
          "internalType": "address",
          "name": "",
          "type": "address"
        }
      ],
      "stateMutability": "view",
      "type": "function"
    },
    {
      "inputs": [],
      "name": "renounceOwnership",
      "outputs": [],
      "stateMutability": "nonpayable",
      "type": "function"
    },
    {
      "inputs": [
        {
          "internalType": "uint256",
          "name": "_tokenAmount",
          "type": "uint256"
        }
      ],
      "name": "transfer",
      "outputs": [],
      "stateMutability": "nonpayable",
      "type": "function"
    },
    {
      "inputs": [
        {
          "internalType": "address",
          "name": "newOwner",
          "type": "address"
        }
      ],
      "name": "transferOwnership",
      "outputs": [],
      "stateMutability": "nonpayable",
      "type": "function"
    },
    {
      "inputs": [],
      "name": "viewBalance",
      "outputs": [
        {
          "internalType": "uint256",
          "name": "",
          "type": "uint256"
        }
      ],
      "stateMutability": "view",
      "type": "function"
    },
    {
      "inputs": [],
      "name": "withDraw",
      "outputs": [],
      "stateMutability": "nonpayable",
      "type": "function"
    }
  ],
  "bytecode": "0x60806040523480156200001157600080fd5b5060405162000be838038062000be883398181016040528101906200003791906200022f565b620000576200004b620000bb60201b60201c565b620000c360201b60201c565b81600160006101000a81548173ffffffffffffffffffffffffffffffffffffffff021916908373ffffffffffffffffffffffffffffffffffffffff16021790555080600160146101000a81548160ff021916908360ff160217905550505062000276565b600033905090565b60008060009054906101000a900473ffffffffffffffffffffffffffffffffffffffff169050816000806101000a81548173ffffffffffffffffffffffffffffffffffffffff021916908373ffffffffffffffffffffffffffffffffffffffff1602179055508173ffffffffffffffffffffffffffffffffffffffff168173ffffffffffffffffffffffffffffffffffffffff167f8be0079c531659141344cd1fd0a4f28419497f9722a3daafe3b4186f6b6457e060405160405180910390a35050565b600080fd5b600073ffffffffffffffffffffffffffffffffffffffff82169050919050565b6000620001b9826200018c565b9050919050565b620001cb81620001ac565b8114620001d757600080fd5b50565b600081519050620001eb81620001c0565b92915050565b600060ff82169050919050565b6200020981620001f1565b81146200021557600080fd5b50565b6000815190506200022981620001fe565b92915050565b6000806040838503121562000249576200024862000187565b5b60006200025985828601620001da565b92505060206200026c8582860162000218565b9150509250929050565b61096280620002866000396000f3fe608060405234801561001057600080fd5b50600436106100625760003560e01c80630fdb1c101461006757806312514bba146100715780633ff1e05b1461008d578063715018a6146100ab5780638da5cb5b146100b5578063f2fde38b146100d3575b600080fd5b61006f6100ef565b005b61008b6004803603810190610086919061060a565b610258565b005b61009561030d565b6040516100a29190610646565b60405180910390f35b6100b36103c4565b005b6100bd6103d8565b6040516100ca91906106a2565b60405180910390f35b6100ed60048036038101906100e891906106e9565b610401565b005b6000600160009054906101000a900473ffffffffffffffffffffffffffffffffffffffff1673ffffffffffffffffffffffffffffffffffffffff166370a08231306040518263ffffffff1660e01b815260040161014c91906106a2565b60206040518083038186803b15801561016457600080fd5b505afa158015610178573d6000803e3d6000fd5b505050506040513d601f19601f8201168201806040525081019061019c919061072b565b9050600160009054906101000a900473ffffffffffffffffffffffffffffffffffffffff1673ffffffffffffffffffffffffffffffffffffffff1663a9059cbb6101e46103d8565b836040518363ffffffff1660e01b8152600401610202929190610758565b602060405180830381600087803b15801561021c57600080fd5b505af1158015610230573d6000803e3d6000fd5b505050506040513d601f19601f8201168201806040525081019061025491906107b9565b5050565b600160009054906101000a900473ffffffffffffffffffffffffffffffffffffffff1673ffffffffffffffffffffffffffffffffffffffff166323b872dd3330846040518463ffffffff1660e01b81526004016102b7939291906107e6565b602060405180830381600087803b1580156102d157600080fd5b505af11580156102e5573d6000803e3d6000fd5b505050506040513d601f19601f8201168201806040525081019061030991906107b9565b5050565b600080600160009054906101000a900473ffffffffffffffffffffffffffffffffffffffff1673ffffffffffffffffffffffffffffffffffffffff166370a08231336040518263ffffffff1660e01b815260040161036b91906106a2565b60206040518083038186803b15801561038357600080fd5b505afa158015610397573d6000803e3d6000fd5b505050506040513d601f19601f820116820180604052508101906103bb919061072b565b90508091505090565b6103cc610485565b6103d66000610503565b565b60008060009054906101000a900473ffffffffffffffffffffffffffffffffffffffff16905090565b610409610485565b600073ffffffffffffffffffffffffffffffffffffffff168173ffffffffffffffffffffffffffffffffffffffff161415610479576040517f08c379a0000000000000000000000000000000000000000000000000000000008152600401610470906108a0565b60405180910390fd5b61048281610503565b50565b61048d6105c7565b73ffffffffffffffffffffffffffffffffffffffff166104ab6103d8565b73ffffffffffffffffffffffffffffffffffffffff1614610501576040517f08c379a00000000000000000000000000000000000000000000000000000000081526004016104f89061090c565b60405180910390fd5b565b60008060009054906101000a900473ffffffffffffffffffffffffffffffffffffffff169050816000806101000a81548173ffffffffffffffffffffffffffffffffffffffff021916908373ffffffffffffffffffffffffffffffffffffffff1602179055508173ffffffffffffffffffffffffffffffffffffffff168173ffffffffffffffffffffffffffffffffffffffff167f8be0079c531659141344cd1fd0a4f28419497f9722a3daafe3b4186f6b6457e060405160405180910390a35050565b600033905090565b600080fd5b6000819050919050565b6105e7816105d4565b81146105f257600080fd5b50565b600081359050610604816105de565b92915050565b6000602082840312156106205761061f6105cf565b5b600061062e848285016105f5565b91505092915050565b610640816105d4565b82525050565b600060208201905061065b6000830184610637565b92915050565b600073ffffffffffffffffffffffffffffffffffffffff82169050919050565b600061068c82610661565b9050919050565b61069c81610681565b82525050565b60006020820190506106b76000830184610693565b92915050565b6106c681610681565b81146106d157600080fd5b50565b6000813590506106e3816106bd565b92915050565b6000602082840312156106ff576106fe6105cf565b5b600061070d848285016106d4565b91505092915050565b600081519050610725816105de565b92915050565b600060208284031215610741576107406105cf565b5b600061074f84828501610716565b91505092915050565b600060408201905061076d6000830185610693565b61077a6020830184610637565b9392505050565b60008115159050919050565b61079681610781565b81146107a157600080fd5b50565b6000815190506107b38161078d565b92915050565b6000602082840312156107cf576107ce6105cf565b5b60006107dd848285016107a4565b91505092915050565b60006060820190506107fb6000830186610693565b6108086020830185610693565b6108156040830184610637565b949350505050565b600082825260208201905092915050565b7f4f776e61626c653a206e6577206f776e657220697320746865207a65726f206160008201527f6464726573730000000000000000000000000000000000000000000000000000602082015250565b600061088a60268361081d565b91506108958261082e565b604082019050919050565b600060208201905081810360008301526108b98161087d565b9050919050565b7f4f776e61626c653a2063616c6c6572206973206e6f7420746865206f776e6572600082015250565b60006108f660208361081d565b9150610901826108c0565b602082019050919050565b60006020820190508181036000830152610925816108e9565b905091905056fea2646970667358221220a565694460c55f7adeed351549ce10c3503181b6be6f97c7efbe5161b0bd21a364736f6c63430008090033",
  "linkReferences": {},
  "deployedLinkReferences": {}
}