{
  "_format": "hh-sol-artifact-1",
  "contractName": "ZuluShopContract",
  "sourceName": "src/blockchain/hardhat/contracts/ZuluShopContract.sol",
  "abi": [
    {
      "inputs": [
        {
          "internalType": "address",
          "name": "addressUSD",
          "type": "address"
        },
        {
          "internalType": "uint8",
          "name": "decimals",
          "type": "uint8"
        }
      ],
      "stateMutability": "nonpayable",
      "type": "constructor"
    },
    {
      "anonymous": false,
      "inputs": [
        {
          "indexed": true,
          "internalType": "address",
          "name": "previousOwner",
          "type": "address"
        },
        {
          "indexed": true,
          "internalType": "address",
          "name": "newOwner",
          "type": "address"
        }
      ],
      "name": "OwnershipTransferred",
      "type": "event"
    },
    {
      "anonymous": false,
      "inputs": [
        {
          "indexed": false,
          "internalType": "uint256",
          "name": "id_Ecomerce",
          "type": "uint256"
        },
        {
          "indexed": false,
          "internalType": "address",
          "name": "customer",
          "type": "address"
        },
        {
          "indexed": false,
          "internalType": "string",
          "name": "refer",
          "type": "string"
        },
        {
          "indexed": false,
          "internalType": "uint256",
          "name": "amount_token",
          "type": "uint256"
        },
        {
          "indexed": false,
          "internalType": "uint256",
          "name": "amount_fiat",
          "type": "uint256"
        }
      ],
      "name": "newSale",
      "type": "event"
    },
    {
      "anonymous": false,
      "inputs": [
        {
          "indexed": false,
          "internalType": "uint256",
          "name": "id_Ecomerce",
          "type": "uint256"
        },
        {
          "indexed": false,
          "internalType": "string",
          "name": "refer",
          "type": "string"
        },
        {
          "indexed": false,
          "internalType": "bool",
          "name": "accepct",
          "type": "bool"
        }
      ],
      "name": "stateTransaction",
      "type": "event"
    },
    {
      "inputs": [],
      "name": "owner",
      "outputs": [
        {
          "internalType": "address",
          "name": "",
          "type": "address"
        }
      ],
      "stateMutability": "view",
      "type": "function"
    },
    {
      "inputs": [],
      "name": "renounceOwnership",
      "outputs": [],
      "stateMutability": "nonpayable",
      "type": "function"
    },
    {
      "inputs": [
        {
          "internalType": "uint256",
          "name": "id_Ecomerce",
          "type": "uint256"
        },
        {
          "internalType": "string",
          "name": "refer",
          "type": "string"
        },
        {
          "internalType": "uint256",
          "name": "amount_token",
          "type": "uint256"
        },
        {
          "internalType": "uint256",
          "name": "amount_fiat",
          "type": "uint256"
        }
      ],
      "name": "transfer",
      "outputs": [],
      "stateMutability": "nonpayable",
      "type": "function"
    },
    {
      "inputs": [
        {
          "internalType": "address",
          "name": "newOwner",
          "type": "address"
        }
      ],
      "name": "transferOwnership",
      "outputs": [],
      "stateMutability": "nonpayable",
      "type": "function"
    },
    {
      "inputs": [],
      "name": "viewBalance",
      "outputs": [
        {
          "internalType": "uint256",
          "name": "",
          "type": "uint256"
        }
      ],
      "stateMutability": "view",
      "type": "function"
    },
    {
      "inputs": [],
      "name": "withDraw",
      "outputs": [],
      "stateMutability": "nonpayable",
      "type": "function"
    }
  ],
  "bytecode": "0x60806040523480156200001157600080fd5b50604051620015b2380380620015b283398181016040528101906200003791906200022f565b620000576200004b620000bb60201b60201c565b620000c360201b60201c565b81600160006101000a81548173ffffffffffffffffffffffffffffffffffffffff021916908373ffffffffffffffffffffffffffffffffffffffff16021790555080600160146101000a81548160ff021916908360ff160217905550505062000276565b600033905090565b60008060009054906101000a900473ffffffffffffffffffffffffffffffffffffffff169050816000806101000a81548173ffffffffffffffffffffffffffffffffffffffff021916908373ffffffffffffffffffffffffffffffffffffffff1602179055508173ffffffffffffffffffffffffffffffffffffffff168173ffffffffffffffffffffffffffffffffffffffff167f8be0079c531659141344cd1fd0a4f28419497f9722a3daafe3b4186f6b6457e060405160405180910390a35050565b600080fd5b600073ffffffffffffffffffffffffffffffffffffffff82169050919050565b6000620001b9826200018c565b9050919050565b620001cb81620001ac565b8114620001d757600080fd5b50565b600081519050620001eb81620001c0565b92915050565b600060ff82169050919050565b6200020981620001f1565b81146200021557600080fd5b50565b6000815190506200022981620001fe565b92915050565b6000806040838503121562000249576200024862000187565b5b60006200025985828601620001da565b92505060206200026c8582860162000218565b9150509250929050565b61132c80620002866000396000f3fe608060405234801561001057600080fd5b50600436106100625760003560e01c80630fdb1c10146100675780633ff1e05b14610071578063715018a61461008f5780637f8bedef146100995780638da5cb5b146100b5578063f2fde38b146100d3575b600080fd5b61006f6100ef565b005b610079610258565b6040516100869190610976565b60405180910390f35b61009761030f565b005b6100b360048036038101906100ae9190610b17565b610323565b005b6100bd6106c3565b6040516100ca9190610bdb565b60405180910390f35b6100ed60048036038101906100e89190610c22565b6106ec565b005b6000600160009054906101000a900473ffffffffffffffffffffffffffffffffffffffff1673ffffffffffffffffffffffffffffffffffffffff166370a08231306040518263ffffffff1660e01b815260040161014c9190610bdb565b60206040518083038186803b15801561016457600080fd5b505afa158015610178573d6000803e3d6000fd5b505050506040513d601f19601f8201168201806040525081019061019c9190610c64565b9050600160009054906101000a900473ffffffffffffffffffffffffffffffffffffffff1673ffffffffffffffffffffffffffffffffffffffff1663a9059cbb6101e46106c3565b836040518363ffffffff1660e01b8152600401610202929190610c91565b602060405180830381600087803b15801561021c57600080fd5b505af1158015610230573d6000803e3d6000fd5b505050506040513d601f19601f820116820180604052508101906102549190610cf2565b5050565b600080600160009054906101000a900473ffffffffffffffffffffffffffffffffffffffff1673ffffffffffffffffffffffffffffffffffffffff166370a08231336040518263ffffffff1660e01b81526004016102b69190610bdb565b60206040518083038186803b1580156102ce57600080fd5b505afa1580156102e2573d6000803e3d6000fd5b505050506040513d601f19601f820116820180604052508101906103069190610c64565b90508091505090565b610317610770565b61032160006107ee565b565b6040518060a001604052808581526020013373ffffffffffffffffffffffffffffffffffffffff1681526020018481526020018381526020018281525060026000820151816000015560208201518160010160006101000a81548173ffffffffffffffffffffffffffffffffffffffff021916908373ffffffffffffffffffffffffffffffffffffffff16021790555060408201518160020190805190602001906103cf9291906108ba565b5060608201518160030155608082015181600401559050507f17e4ddd08f0988d661a61dc1b906a0de632f9de7a55d5c40e891dfcdb073c72c843385858560405161041e959493929190610da7565b60405180910390a16000600160149054906101000a900460ff16600a6104449190610f70565b8361044f9190610fbb565b9050600081600160009054906101000a900473ffffffffffffffffffffffffffffffffffffffff1673ffffffffffffffffffffffffffffffffffffffff166370a08231336040518263ffffffff1660e01b81526004016104af9190610bdb565b60206040518083038186803b1580156104c757600080fd5b505afa1580156104db573d6000803e3d6000fd5b505050506040513d601f19601f820116820180604052508101906104ff9190610c64565b1090508015610584577f123651caa7b9e7533605e756fdf841ebc59d35d75cbb4a708d8e82e7a0b6701b86868360405161053b93929190611024565b60405180910390a180610583576040517f08c379a000000000000000000000000000000000000000000000000000000000815260040161057a906110ae565b60405180910390fd5b5b600160009054906101000a900473ffffffffffffffffffffffffffffffffffffffff1673ffffffffffffffffffffffffffffffffffffffff166323b872dd3330856040518463ffffffff1660e01b81526004016105e3939291906110ce565b602060405180830381600087803b1580156105fd57600080fd5b505af192505050801561062e57506040513d601f19601f8201168201806040525081019061062b9190610cf2565b60015b61063b5760009050610640565b809150505b7f123651caa7b9e7533605e756fdf841ebc59d35d75cbb4a708d8e82e7a0b6701b86868360405161067393929190611024565b60405180910390a1806106bb576040517f08c379a00000000000000000000000000000000000000000000000000000000081526004016106b290611177565b60405180910390fd5b505050505050565b60008060009054906101000a900473ffffffffffffffffffffffffffffffffffffffff16905090565b6106f4610770565b600073ffffffffffffffffffffffffffffffffffffffff168173ffffffffffffffffffffffffffffffffffffffff161415610764576040517f08c379a000000000000000000000000000000000000000000000000000000000815260040161075b90611209565b60405180910390fd5b61076d816107ee565b50565b6107786108b2565b73ffffffffffffffffffffffffffffffffffffffff166107966106c3565b73ffffffffffffffffffffffffffffffffffffffff16146107ec576040517f08c379a00000000000000000000000000000000000000000000000000000000081526004016107e390611275565b60405180910390fd5b565b60008060009054906101000a900473ffffffffffffffffffffffffffffffffffffffff169050816000806101000a81548173ffffffffffffffffffffffffffffffffffffffff021916908373ffffffffffffffffffffffffffffffffffffffff1602179055508173ffffffffffffffffffffffffffffffffffffffff168173ffffffffffffffffffffffffffffffffffffffff167f8be0079c531659141344cd1fd0a4f28419497f9722a3daafe3b4186f6b6457e060405160405180910390a35050565b600033905090565b8280546108c6906112c4565b90600052602060002090601f0160209004810192826108e8576000855561092f565b82601f1061090157805160ff191683800117855561092f565b8280016001018555821561092f579182015b8281111561092e578251825591602001919060010190610913565b5b50905061093c9190610940565b5090565b5b80821115610959576000816000905550600101610941565b5090565b6000819050919050565b6109708161095d565b82525050565b600060208201905061098b6000830184610967565b92915050565b6000604051905090565b600080fd5b600080fd5b6109ae8161095d565b81146109b957600080fd5b50565b6000813590506109cb816109a5565b92915050565b600080fd5b600080fd5b6000601f19601f8301169050919050565b7f4e487b7100000000000000000000000000000000000000000000000000000000600052604160045260246000fd5b610a24826109db565b810181811067ffffffffffffffff82111715610a4357610a426109ec565b5b80604052505050565b6000610a56610991565b9050610a628282610a1b565b919050565b600067ffffffffffffffff821115610a8257610a816109ec565b5b610a8b826109db565b9050602081019050919050565b82818337600083830152505050565b6000610aba610ab584610a67565b610a4c565b905082815260208101848484011115610ad657610ad56109d6565b5b610ae1848285610a98565b509392505050565b600082601f830112610afe57610afd6109d1565b5b8135610b0e848260208601610aa7565b91505092915050565b60008060008060808587031215610b3157610b3061099b565b5b6000610b3f878288016109bc565b945050602085013567ffffffffffffffff811115610b6057610b5f6109a0565b5b610b6c87828801610ae9565b9350506040610b7d878288016109bc565b9250506060610b8e878288016109bc565b91505092959194509250565b600073ffffffffffffffffffffffffffffffffffffffff82169050919050565b6000610bc582610b9a565b9050919050565b610bd581610bba565b82525050565b6000602082019050610bf06000830184610bcc565b92915050565b610bff81610bba565b8114610c0a57600080fd5b50565b600081359050610c1c81610bf6565b92915050565b600060208284031215610c3857610c3761099b565b5b6000610c4684828501610c0d565b91505092915050565b600081519050610c5e816109a5565b92915050565b600060208284031215610c7a57610c7961099b565b5b6000610c8884828501610c4f565b91505092915050565b6000604082019050610ca66000830185610bcc565b610cb36020830184610967565b9392505050565b60008115159050919050565b610ccf81610cba565b8114610cda57600080fd5b50565b600081519050610cec81610cc6565b92915050565b600060208284031215610d0857610d0761099b565b5b6000610d1684828501610cdd565b91505092915050565b600081519050919050565b600082825260208201905092915050565b60005b83811015610d59578082015181840152602081019050610d3e565b83811115610d68576000848401525b50505050565b6000610d7982610d1f565b610d838185610d2a565b9350610d93818560208601610d3b565b610d9c816109db565b840191505092915050565b600060a082019050610dbc6000830188610967565b610dc96020830187610bcc565b8181036040830152610ddb8186610d6e565b9050610dea6060830185610967565b610df76080830184610967565b9695505050505050565b7f4e487b7100000000000000000000000000000000000000000000000000000000600052601160045260246000fd5b60008160011c9050919050565b6000808291508390505b6001851115610e8757808604811115610e6357610e62610e01565b5b6001851615610e725780820291505b8081029050610e8085610e30565b9450610e47565b94509492505050565b600082610ea05760019050610f5c565b81610eae5760009050610f5c565b8160018114610ec45760028114610ece57610efd565b6001915050610f5c565b60ff841115610ee057610edf610e01565b5b8360020a915084821115610ef757610ef6610e01565b5b50610f5c565b5060208310610133831016604e8410600b8410161715610f325782820a905083811115610f2d57610f2c610e01565b5b610f5c565b610f3f8484846001610e3d565b92509050818404811115610f5657610f55610e01565b5b81810290505b9392505050565b600060ff82169050919050565b6000610f7b8261095d565b9150610f8683610f63565b9250610fb37fffffffffffffffffffffffffffffffffffffffffffffffffffffffffffffffff8484610e90565b905092915050565b6000610fc68261095d565b9150610fd18361095d565b9250817fffffffffffffffffffffffffffffffffffffffffffffffffffffffffffffffff048311821515161561100a57611009610e01565b5b828202905092915050565b61101e81610cba565b82525050565b60006060820190506110396000830186610967565b818103602083015261104b8185610d6e565b905061105a6040830184611015565b949350505050565b7f4d6f6e746f20696e737566696369656e74650000000000000000000000000000600082015250565b6000611098601283610d2a565b91506110a382611062565b602082019050919050565b600060208201905081810360008301526110c78161108b565b9050919050565b60006060820190506110e36000830186610bcc565b6110f06020830185610bcc565b6110fd6040830184610967565b949350505050565b7f4c61207472616e736163696f6e206e6f207365206c6f67726f207265616c697a60008201527f6172000000000000000000000000000000000000000000000000000000000000602082015250565b6000611161602283610d2a565b915061116c82611105565b604082019050919050565b6000602082019050818103600083015261119081611154565b9050919050565b7f4f776e61626c653a206e6577206f776e657220697320746865207a65726f206160008201527f6464726573730000000000000000000000000000000000000000000000000000602082015250565b60006111f3602683610d2a565b91506111fe82611197565b604082019050919050565b60006020820190508181036000830152611222816111e6565b9050919050565b7f4f776e61626c653a2063616c6c6572206973206e6f7420746865206f776e6572600082015250565b600061125f602083610d2a565b915061126a82611229565b602082019050919050565b6000602082019050818103600083015261128e81611252565b9050919050565b7f4e487b7100000000000000000000000000000000000000000000000000000000600052602260045260246000fd5b600060028204905060018216806112dc57607f821691505b602082108114156112f0576112ef611295565b5b5091905056fea264697066735822122097e4f6b61aaf9b288046e01b0eedf5a9badd3400b8fedca1f467d6941fb7529c64736f6c63430008090033",
  "linkReferences": {},
  "deployedLinkReferences": {}
}